:020000040800F2
:10000000600500203D0500089D0500084F1300080D
:100010009D0500089D0500089D05000800000000E2
:100020000000000000000000000000009D05000826
:100030009D050008000000009D0500083915000816
:100040009D0500089D0500089D0500089D05000808
:100050009D0500089D0500089D0500089D050008F8
:100060009D0500089D0500089D0500089D050008E8
:100070009D0500089D0500089D0500089D050008D8
:100080009D0500089D0500089D0500089D050008C8
:100090009D050008A11100089D0500089D050008A8
:1000A0009D0500089D0500089D0500089D050008A8
:1000B0009D0500089D0500089D0500089D05000898
:1000C0009D0500089D0500089D0500089D05000888
:1000D0009D0500089D0500089D0500089D05000878
:1000E0009D0500089D0500089D0500080000000012
:1000F0000000000000000000000000000000000000
:1001000000000000000000005FF808F180B485B036
:1001100000AF786039600023FB817B681B88FB811E
:100120007B682E4A934213D07B682D4A93420FD0AE
:100130007B68B3F1804F0BD07B682A4A934207D08B
:100140007B68294A934203D07B68284A934208D1AE
:10015000FB8923F07003FB813B685A88FB891343BA
:10016000FB817B68224A93420CD07B68214A9342F0
:1001700008D0FB8923F44073FB813B68DA88FB8954
:100180001343FB817B68FA891A803B689A887B68F5
:100190009A853B681A887B681A857B680F4A934268
:1001A0000FD07B680E4A93420BD07B68124A934271
:1001B00007D07B68114A934203D07B68104A934270
:1001C00004D13B681B7A9AB27B681A867B6801224D
:1001D0009A8200BF1437BD4680BC7047002C014096
:1001E000003401400004004000080040000C0040C2
:1001F0000010004000140040004001400044014055
:100200000048014080B485B000AF786039600023B9
:100210007B810023FB810023BB817B681B8C9BB20D
:1002200023F480739AB27B681A847B681B8CFB81F1
:100230007B689B88BB817B689B8B7B817B8923F060
:1002400070037B817B8923F003037B813B681A88E1
:100250007B8913437B81FB8923F40073FB813B681B
:100260001B891B029AB2FB891343FB813B685B88A5
:100270001B029AB2FB891343FB817B68224A93429B
:1002800003D07B68214A93422BD1FB8923F400637E
:10029000FB813B685B891B029AB2FB891343FB819C
:1002A000FB8923F48063FB813B689B881B029AB225
:1002B000FB891343FB81BB8923F48053BB81BB893A
:1002C00023F40053BB813B689B891B019AB2BB8915
:1002D0001343BB813B68DB891B019AB2BB89134383
:1002E000BB817B68BA899A807B687A899A833B68EC
:1002F000DA887B689A877B68FA891A8400BF14378A
:10030000BD4680BC704700BF002C01400034014056
:1003100080B483B000AF78600B46FB70FB78002B95
:1003200008D07B681B889BB243F001039AB27B68BC
:100330001A8007E07B681B889BB223F001039AB206
:100340007B681A8000BF0C37BD4680BC704700BF79
:1003500080B483B000AF78600B46FB70FB78002B55
:1003600008D07B681B889BB243F080039AB27B68FD
:100370001A8007E07B681B889BB223F080039AB247
:100380007B681A8000BF0C37BD4680BC704700BF39
:1003900080B485B000AF78600B467B800023FB8182
:1003A0007B689B8BFB81FB8923F00803FB81FA8927
:1003B0007B881343FB817B68FA899A8300BF1437DB
:1003C000BD4680BC704700BF80B500AF154A154BD5
:1003D0001B6843F0010313601249124B5A68124B19
:1003E00013404B600F4A0F4B1B6823F0847323F4B8
:1003F000803313600B4A0B4B1B6823F4802313607C
:10040000084A084B5B6823F4FE035360054B4FF426
:100410001F029A6000F00CF8044B4FF000629A60E3
:1004200000BF80BD001002400000FFF800ED00E0BA
:1004300080B500AF00F002F800BF80BD80B483B08B
:1004400000AF00237B6000233B603A4A394B1B68B6
:1004500043F480331360374B1B6803F400333B6075
:100460007B6801337B603B68002B03D17B68B3F56D
:10047000A06FF0D12F4B1B6803F40033002B02D088
:1004800001233B6001E000233B603B68012B4BD123
:10049000294A294B1B6843F010031360264A264B58
:1004A0001B6823F003031360234A234B1B6843F0AC
:1004B000020313601F4A1F4B5B6853601D4A1D4BAC
:1004C0005B6853601B4A1B4B5B6843F4806353605B
:1004D000184A184B5B6823F47C135360154A154B7C
:1004E0005B6843F4E8135360124A124B1B6843F0F5
:1004F0008073136000BF0F4B1B6803F00073002B69
:10050000F9D00C4A0B4B5B6823F003035360094A94
:10051000084B5B6843F00203536000BF054B5B6808
:1005200003F00C03082BF9D100BF0C37BD4680BC8B
:10053000704700BF001002400020024080B582B02A
:1005400000AF114B7B60114B3B6007E03B681A1D0D
:100550003A607A68111D796012681A603B680C4A2B
:100560009342F3D30B480C494FF000028842B8BFC6
:1005700040F8042BFADBFFF727FF00F0F5FC00BF83
:100580000837BD4680BD00BFE81600080000002007
:1005900000000020000000205C01002080B400AFBB
:1005A000FEE700BF80B582B000AF78607B680E4A7E
:1005B00093420AD101214FF0007000F02DFD00217F
:1005C0004FF0007000F028FD09E001214FF080603D
:1005D00000F022FD00214FF0806000F01DFD00BF03
:1005E0000837BD4680BD00BF0064004080B485B0C0
:1005F00000AF786039600023FB730023BB607B6829
:100600001B6823F002027B681A607B681B6843F05A
:1006100001027B681A6002E0BB680133BB607B6843
:100620005B6803F00103002B04D1BB684FF6FF7237
:100630009342F1D17B685B6803F00103002B02D188
:100640000023FB739CE03B689B79012B06D17B6800
:100650001B6843F080027B681A6005E07B681B68BA
:1006600023F080027B681A603B68DB79012B06D19E
:100670007B681B6843F040027B681A6005E07B687A
:100680001B6823F040027B681A603B681B7A012BD1
:1006900006D17B681B6843F020027B681A6005E086
:1006A0007B681B6823F020027B681A603B685B7ADA
:1006B000012B06D17B681B6843F010027B681A602F
:1006C00005E07B681B6823F010027B681A603B68BA
:1006D0009B7A012B06D17B681B6843F008027B687C
:1006E0001A6005E07B681B6823F008027B681A60CB
:1006F0003B68DB7A012B06D17B681B6843F0040260
:100700007B681A6005E07B681B6823F004027B6845
:100710001A603B689B789A073B68DB781B061A4394
:100720003B681B791B041A433B685B791B051A4322
:100730003B681B88013B1A437B68DA617B681B6856
:1007400023F001027B681A600023BB6002E0BB68F3
:100750000133BB607B685B6803F00103002B04D0AE
:10076000BB684FF6FF729342F1D17B685B6803F080
:100770000103002B02D00023FB7301E00123FB7374
:10078000FB7B18461437BD4680BC704780B485B0EB
:1007900000AF78600023FB607B689B7A1A460123D8
:1007A0009340FB60554A554BD3F8003243F00103A8
:1007B000C2F800325149514BD3F81C22FB68DB438D
:1007C0001340C1F81C327B681B7B002B25D14B49A1
:1007D0004A4BD3F80C22FB68DB431340C1F80C32C0
:1007E00046497B689B7A18467B68DB881B047A68DD
:1007F00052881A4300F1480341F833203F497B688F
:100800009B7A18467B689B881B047A6812881A4377
:1008100000F14803DB000B445A607B681B7B012B13
:1008200024D13649354BD3F80C22FB681343C1F869
:100830000C3232497B689B7A18467B681B881B0404
:100840007A6852881A4300F1480341F833202B4953
:100850007B689B7A18467B689B881B047A68D288E1
:100860001A4300F14803DB000B445A607B68DB7AD3
:10087000002B09D12149214BD3F80422FB68DB432B
:100880001340C1F8043207E01C491C4BD3F8042282
:10089000FB681343C1F804327B681B89002B08D125
:1008A0001649164BD3F81422FB68DB431340C1F8FA
:1008B00014327B681B89012B07D110490F4BD3F8E9
:1008C0001422FB681343C1F814327B685B7B012B55
:1008D00007D10A49094BD3F81C22FB681343C1F81E
:1008E0001C32064A054BD3F8003223F00103C2F84C
:1008F000003200BF1437BD4680BC70470064004022
:1009000080B485B000AF786039600023FB737B68EA
:100910009B6803F08063002B02D00023FB7313E07D
:100920007B689B6803F00063002B02D00123FB73FC
:100930000AE07B689B6803F08053002B02D00223FF
:10094000FB7301E00423FB73FB7B042B00F09C8012
:10095000FB7BFA7B7968183212010A44126802F0B4
:100960000102796818331B010B441A603B681B7A3B
:10097000002B13D1FB7BFA7B7968183212010A44F1
:1009800011683A68126852053868407A02430A438F
:10099000796818331B010B441A6015E0FB7BFA7B66
:1009A0007968183212010A4411683A685268D20014
:1009B0003868007A02433868407A02430A4379680B
:1009C00018331B010B441A603B689B7A03F00F033A
:1009D000DAB23B689A72FB7BFA7B796818321201B3
:1009E0000A440432126822F00F02796818331B019E
:1009F0000B4404331A60FB7BFA7B796818321201CE
:100A00000A44043212683968897A0A4379681833CB
:100A10001B010B4404331A60FB7B3A68927B11067E
:100A20003A68527B120411433A68127B12020A435D
:100A30003968C97A0A4379681B010B4403F5C4730A
:100A40001A60FB7B3A68927C11063A68527C120469
:100A500011433A68127C12020A433968C97B0A437F
:100A600079681B010B4403F5C6731A60FB7BFA7BA4
:100A70007968183212010A44126842F0010279685A
:100A800018331B010B441A60FB7B18461437BD4614
:100A900080BC704780B485B000AFF8600B467A60C8
:100AA000FB72FB7AFA681B331B0113441B68DBB231
:100AB00003F00403DAB27B681A727B681B7A002B9E
:100AC00009D1FB7AFA681B331B0113441B685A0DCA
:100AD0007B681A6008E0FB7AFA681B331B01134439
:100AE0001B68DA087B685A60FB7AFA681B331B01C3
:100AF00013441B68DBB203F00203DAB27B685A725C
:100B0000FB7AFA681B331B01134404331B68DBB206
:100B100003F00F03DAB27B689A72FB7AFA681B3330
:100B20001B01134404331B681B0ADAB27B68DA74B6
:100B3000FB7AFA681B01134403F5DC731B68DAB215
:100B40007B68DA72FB7AFA681B01134403F5DC73E5
:100B50001B681B0ADAB27B681A73FB7AFA681B01FE
:100B6000134403F5DC731B681B0CDAB27B685A7301
:100B7000FB7AFA681B01134403F5DC731B681B0E38
:100B8000DAB27B689A73FB7AFA681B01134403F5A7
:100B9000DE731B68DAB27B68DA73FB7AFA681B01D2
:100BA000134403F5DE731B681B0ADAB27B681A7400
:100BB000FB7AFA681B01134403F5DE731B681B0CF8
:100BC000DAB27B685A74FB7AFA681B01134403F5A6
:100BD000DE731B681B0EDAB27B689A74FB7A002BFB
:100BE00006D1FB68DB6843F02002FB68DA6005E0B1
:100BF000FB681B6943F02002FB681A6100BF1437D1
:100C0000BD4680BC704700BF80B485B000AFF860BF
:100C1000B9601346FB71FB79002B06D0FB685A695B
:100C2000BB681A43FB685A6106E0FB685A69BB68F7
:100C3000DB431A40FB685A6100BF1437BD4680BCD5
:100C4000704700BF80B485B000AF78603960002382
:100C5000FB733B6803F47003002B0DD07B689A692B
:100C60003B681340C3F31303002B02D00123FB7333
:100C700048E00023FB7345E03B6803F08073002BE2
:100C80000DD07B685A683B681340C3F31303002BF5
:100C900002D00123FB7335E00023FB7332E03B6895
:100CA00003F00063002B0DD07B689A683B6813400B
:100CB000C3F31303002B02D00123FB7322E00023B4
:100CC000FB731FE03B6803F00073002B0DD07B68C3
:100CD000DA683B681340C3F31303002B02D00123EF
:100CE000FB730FE00023FB730CE07B681A693B6821
:100CF0001340C3F31303002B02D00123FB7301E065
:100D00000023FB73FB7B18461437BD4680BC70473D
:100D100080B489B000AF786039600023FB610023A4
:100D20003B610023BB610023FB6000237B61002348
:100D3000BB603B68DB7803F00F03FB613B68DB784B
:100D400003F01003002B05D03B689B781A46FB6923
:100D50001343FB613B681B88DBB2002B44D07B68EC
:100D60001B687B610023BB6138E00122BB6902FA8A
:100D700003F3FB603B681B881A46FB6813403B612A
:100D80003A69FB689A4226D1BB699B00FB600F223F
:100D9000FB6802FA03F3BB60BB68DB437A6913406C
:100DA0007B61FA69FB6802FA03F37A6913437B619A
:100DB0003B68DB78282B05D10122BB699A407B6810
:100DC0005A6108E03B68DB78482B04D10122BB69FB
:100DD0009A407B681A61BB690133BB61BB69072B11
:100DE000C3D97B687A691A603B681B88FF2B46D998
:100DF0007B685B687B610023BB613AE0BB690833B9
:100E0000012202FA03F3FB603B681B881A46FB6869
:100E100013403B613A69FB689A4227D1BB699B004A
:100E2000FB600F22FB6802FA03F3BB60BB68DB4385
:100E30007A6913407B61FA69FB6802FA03F37A6905
:100E400013437B613B68DB78282B05D1BB690833F2
:100E500001229A407B685A613B68DB78482B05D1B8
:100E6000BB69083301229A407B681A61BB69013370
:100E7000BB61BB69072BC1D97B687A695A6000BF27
:100E80002437BD4680BC704780B487B000AF78601F
:100E90000B46FB7000233B610023FB6000237B615A
:100EA0000023BB607B68002B03DA2E4BDB697B6180
:100EB00002E02C4B5B687B617B681B0C03F00F032B
:100EC000BB607B689BB23B617B6803F44013B3F566
:100ED000401F0AD17B6923F070637B61214A214B5B
:100EE0005B6823F07063536021E07B6803F4801338
:100EF000002B0ED00322BB6802FA03F3FB60FB68F1
:100F0000DB437A6913407B617B6943F070637B61EB
:100F10000DE07B685B0D1B013A6902FA03F3DB43CA
:100F20007A6913407B617B6943F070637B61FB7876
:100F3000002B08D07B685B0D1B013A6902FA03F3B2
:100F40007A6913437B617B68002B03DA054A7B696E
:100F5000D36102E0034A7B69536000BF1C37BD4682
:100F600080BC70470000014080B500AF00F0FAF986
:100F700000F01AFA00F088F800F0C8FA40F20220F7
:100F800000F046F903461A46034B1A70034B1B78D0
:100F9000184600F051FAFEE702000020060000208B
:100FA00080B483B000AF78600B46FB70FB78002BF9
:100FB00006D00949084B9A697B6813438B6106E0A8
:100FC0000549054B9A697B68DB4313408B6100BF81
:100FD0000C37BD4680BC70470010024080B483B01F
:100FE00000AF78600B46FB70FB78002B06D00949F8
:100FF000084BDA697B681343CB6106E00549054B72
:10100000DA697B68DB431340CB6100BF0C37BD4618
:1010100080BC70470010024080B483B000AF78609D
:101020000B46FB70FB78002B06D00949084B1A6968
:101030007B6813430B6106E00549054B1A697B6821
:10104000DB4313400B6100BF0C37BD4680BC7047CB
:101050000010024080B500AF0A4B1B780133DAB2B2
:10106000084B1A70074B1B78194640F2024000F0FB
:1010700025F9044B1B78FF2B02D1024B00221A707A
:1010800000BF80BD2000002080B586B000AF0121E8
:101090004FF00070FFF7A2FF01210420FFF780FF4F
:1010A00001211020FFF77CFF4FF48053BB821823EF
:1010B000FB750323BB7507F1140319463448FFF78A
:1010C00027FE4FF40063BB820423FB7507F1140372
:1010D00019462F48FFF71CFE4FF40053BB82142320
:1010E000FB7507F1140319462A48FFF711FE2A4839
:1010F000FFF758FA0023BB730023FB7300233B74F4
:1011000000237B740023BB740023FB740023BB7299
:101110000323FB720A233B7305237B7304233B8168
:1011200007F1080319461C48FFF760FA0122022163
:101130001948FFF769FD15233B7100237B710023DC
:10114000BB710123FB713B1D184600F06BFA124A7C
:10115000114B5B6943F002035361104B00221A727A
:101160000E4B40F201321A600C4B00225A600B4BBE
:1011700000225A72094B00221A72084B01229A72FD
:10118000064B0022DA7200BF1837BD4680BD00BF93
:1011900000080140001001400064004038000020B9
:1011A00090B583B000AF164A00211648FFF772FCD5
:1011B000134B9B7AFB71FB79002B1CD0104BDB7C13
:1011C0001C46FB79013BFA79013A0D490A44D07A71
:1011D0000D49E2000A44134402461A70FB79013BB0
:1011E000FB71FB79002BE9D1084B1B780133DAB294
:1011F000064B1A7000E000BF0C37BD4690BD00BF23
:101200002400002000640040DC0000204C0000208E
:1012100080B586B000AF0346FB80274B1B78372B89
:1012200001D9FF2343E0244B1B7803F00303FB7534
:101230000123FB7400233B7500233B8201237B7554
:101240001D4B1B789B08DBB2BB74FB7D032B1FD8A7
:1012500001A252F823F000BF6912000873120008BF
:101260007D12000887120008FB885B019BB27B811E
:101270000EE0FB885B019BB2FB8109E0FB885B0110
:101280009BB23B8104E0FB885B019BB2BB8100BF4A
:1012900007F108031846FFF779FA074B1B7801336B
:1012A000DAB2054B1A70044B1B78013BDBB21846CF
:1012B0001837BD4680BD00BF4E00002080B584B009
:1012C00000AF03460A46FB8013467B71FB88174A32
:1012D0001360164B00225A60144B00225A72134BB3
:1012E00000221A72114B01229A72104A7B79D37232
:1012F0000F4B04221A700F4BFB600C490E48FFF78E
:10130000FFFA03461A460A4B1A70094B1B78042B46
:1013100005D1FB685A1EFA60092B02D9EDE700BF20
:1013200000E000BF1037BD4680BD00BF3800002080
:101330004D000020400D030000640040ABBE01E002
:1013400000207047002A00D01060012070470698E6
:1013500001884BF6AB62914202D10430069070478F
:10136000FEE7000080B582B000AF01210820FFF742
:1013700017FE01210120FFF713FE01210848FFF7A6
:1013800083FD3823BB801023FB710223BB713B1DFF
:1013900019460448FFF7BCFC00BF0837BD4680BDB6
:1013A00000023000000C014080B588B000AF012180
:1013B0000420FFF713FE01210920FFF7F1FD4FF490
:1013C00080733B801823FB700323BB703B46194698
:1013D0001748FFF79DFC42F2AC633B834823BB8276
:1013E00000237B830023FB8207F114031946114875
:1013F000FEF78CFE6023BB800123FB8041F2563355
:101400007B810023BB813B1D19460A48FEF7FAFE8B
:1014100008210848FEF7BCFF01210648FEF798FFA7
:1014200001210448FEF774FF00BF2037BD4680BD90
:10143000000C01400008004080B483B000AF0346B8
:10144000FB71FB7903F00103002B06D02C4A2C4BD7
:10145000DB6843F00803D36005E0294A284BDB68CA
:1014600023F00803D360FB7903F00203002B06D0BE
:10147000234A234BDB6843F01003D36005E0204A86
:101480001F4BDB6823F01003D360FB7903F00403E8
:10149000002B06D01A4A1A4BDB6843F02003D360B6
:1014A00005E0174A164BDB6823F02003D360FB7975
:1014B00003F07803002B1DD0FB79DB10DBB203F0C7
:1014C0000F03DAB20F4B1A700E4B1B780A2B11D890
:1014D0000D4A0C4B1B789BB219464900194408462B
:1014E0004001411A8900CB1A5B009BB203F6AB1393
:1014F0009BB2938700BF0C37BD4680BC704700BFCE
:10150000000C01404F0000200008004080B400AFF4
:10151000074B00221A60064B064A5A60044B002211
:101520009A60034B07221A6000BFBD4680BC70471B
:1015300010E000E080FC0A0090B587B000AF304BAF
:101540001B780133DAB22E4B1A702E4B1B880133F5
:101550009AB22C4B1A802C492C48FFF773FB034698
:10156000002B35D03B461A4600212848FFF792FA57
:10157000BB7AFB75FB7D002B3ED0FB7C1C46FB7DC4
:10158000013BFA7D013A07F118010A4412F80D0CEB
:101590001F49E2000A44134402461A70FB7D013BD6
:1015A000FB75FB7D002BE8D11A4A1A4BDB6883F4EC
:1015B0000053D360184B1B78DBB21A46144B13F858
:1015C0003220164B1A70154B1B781846FFF734FF64
:1015D0000B4B1B78092B05D9114B01221A70084BB4
:1015E00000221A70074B1B88632B06D9FFF732FDC8
:1015F000044B00221A8000E000BF1C37BD4690BD9E
:10160000500000205200002003000012006400403F
:101610005C00002000100140020000205400002067
:101620000500002080B487B000AF786000237B61A4
:1016300000233B610F23FB607B68DB78002B3AD0F3
:10164000274BDB68DB4303F4E0631B0A7B617B69A8
:10165000C3F104033B61FA687B6922FA03F3FB6080
:101660007B685B781A463B6902FA03F37B617B680F
:101670009B781A46FB6813407A6913437B617B6948
:101680001B017B61174A7B681B787969C9B21344D7
:101690000A4683F80023134A7B681B785B09DBB298
:1016A00018467B681B7803F01F03012101FA03F33E
:1016B00042F820300FE00B497B681B785B09DBB2F6
:1016C00018467B681B7803F01F0301229A4000F143
:1016D000200341F8232000BF1C37BD4680BC704763
:0816E00000ED00E000E100E074
:0400000508000000EF
:00000001FF
